{
  "contractName": "ExerciseC6A",
  "abi": [
    {
      "inputs": [],
      "payable": false,
      "stateMutability": "nonpayable",
      "type": "constructor"
    },
    {
      "constant": true,
      "inputs": [
        {
          "name": "account",
          "type": "address"
        }
      ],
      "name": "isUserRegistered",
      "outputs": [
        {
          "name": "",
          "type": "bool"
        }
      ],
      "payable": false,
      "stateMutability": "view",
      "type": "function"
    },
    {
      "constant": true,
      "inputs": [],
      "name": "isOperational",
      "outputs": [
        {
          "name": "",
          "type": "bool"
        }
      ],
      "payable": false,
      "stateMutability": "view",
      "type": "function"
    },
    {
      "constant": false,
      "inputs": [
        {
          "name": "account",
          "type": "address"
        },
        {
          "name": "isAdmin",
          "type": "bool"
        }
      ],
      "name": "registerUser",
      "outputs": [],
      "payable": false,
      "stateMutability": "nonpayable",
      "type": "function"
    },
    {
      "constant": false,
      "inputs": [
        {
          "name": "mode",
          "type": "bool"
        }
      ],
      "name": "setOperatingStatus",
      "outputs": [],
      "payable": false,
      "stateMutability": "nonpayable",
      "type": "function"
    }
  ],
  "bytecode": "0x608060405260016000806101000a81548160ff021916908315150217905550600060405190808252806020026020018201604052801561004e5781602001602082028038833980820191505090505b50600290805190602001906100649291906100b8565b5034801561007157600080fd5b5033600060016101000a81548173ffffffffffffffffffffffffffffffffffffffff021916908373ffffffffffffffffffffffffffffffffffffffff160217905550610185565b828054828255906000526020600020908101928215610131579160200282015b828111156101305782518260006101000a81548173ffffffffffffffffffffffffffffffffffffffff021916908373ffffffffffffffffffffffffffffffffffffffff160217905550916020019190600101906100d8565b5b50905061013e9190610142565b5090565b61018291905b8082111561017e57600081816101000a81549073ffffffffffffffffffffffffffffffffffffffff021916905550600101610148565b5090565b90565b610abf806101946000396000f300608060405260043610610062576000357c0100000000000000000000000000000000000000000000000000000000900463ffffffff168063110466ed14610067578063163f752214610096578063951faf00146100f1578063cd905dff14610140575b600080fd5b34801561007357600080fd5b5061009460048036038101908080351515906020019092919050505061016f565b005b3480156100a257600080fd5b506100d7600480360381019080803573ffffffffffffffffffffffffffffffffffffffff1690602001909291905050506105ba565b604051808215151515815260200191505060405180910390f35b3480156100fd57600080fd5b5061013e600480360381019080803573ffffffffffffffffffffffffffffffffffffffff1690602001909291908035151590602001909291905050506106dd565b005b34801561014c57600080fd5b506101556109b0565b604051808215151515815260200191505060405180910390f35b600080600060019054906101000a900473ffffffffffffffffffffffffffffffffffffffff1673ffffffffffffffffffffffffffffffffffffffff163373ffffffffffffffffffffffffffffffffffffffff16141515610237576040517f08c379a000000000000000000000000000000000000000000000000000000000815260040180806020018281038252601c8152602001807f43616c6c6572206973206e6f7420636f6e7472616374206f776e65720000000081525060200191505060405180910390fd5b6000809054906101000a900460ff161515831515141515156102e7576040517f08c379a000000000000000000000000000000000000000000000000000000000815260040180806020018281038252602d8152602001807f4e6577206d6f6465206d75737420626520646966666572656e742066726f6d2081526020017f6578697374696e67206d6f64650000000000000000000000000000000000000081525060400191505060405180910390fd5b600160003373ffffffffffffffffffffffffffffffffffffffff1673ffffffffffffffffffffffffffffffffffffffff16815260200190815260200160002060000160019054906101000a900460ff1615156103ab576040517f08c379a00000000000000000000000000000000000000000000000000000000081526004018080602001828103825260168152602001807f43616c6c6572206973206e6f7420616e2061646d696e0000000000000000000081525060200191505060405180910390fd5b60009150600090505b600280549050811015610444573373ffffffffffffffffffffffffffffffffffffffff166002828154811015156103e757fe5b9060005260206000200160009054906101000a900473ffffffffffffffffffffffffffffffffffffffff1673ffffffffffffffffffffffffffffffffffffffff1614156104375760019150610444565b80806001019150506103b4565b811515156104e0576040517f08c379a00000000000000000000000000000000000000000000000000000000081526004018080602001828103825260288152602001807f43616c6c65722068617320616c72656164792063616c6c65642074686973206681526020017f756e6374696f6e2e00000000000000000000000000000000000000000000000081525060400191505060405180910390fd5b60023390806001815401808255809150509060018203906000526020600020016000909192909190916101000a81548173ffffffffffffffffffffffffffffffffffffffff021916908373ffffffffffffffffffffffffffffffffffffffff16021790555050600280805490501015156105b557826000806101000a81548160ff021916908315150217905550600060405190808252806020026020018201604052801561059d5781602001602082028038833980820191505090505b50600290805190602001906105b39291906109c6565b505b505050565b60008073ffffffffffffffffffffffffffffffffffffffff168273ffffffffffffffffffffffffffffffffffffffff1614151515610686576040517f08c379a00000000000000000000000000000000000000000000000000000000081526004018080602001828103825260228152602001807f276163636f756e7427206d75737420626520612076616c69642061646472657381526020017f732e00000000000000000000000000000000000000000000000000000000000081525060400191505060405180910390fd5b600160008373ffffffffffffffffffffffffffffffffffffffff1673ffffffffffffffffffffffffffffffffffffffff16815260200190815260200160002060000160009054906101000a900460ff169050919050565b600060019054906101000a900473ffffffffffffffffffffffffffffffffffffffff1673ffffffffffffffffffffffffffffffffffffffff163373ffffffffffffffffffffffffffffffffffffffff161415156107a2576040517f08c379a000000000000000000000000000000000000000000000000000000000815260040180806020018281038252601c8152602001807f43616c6c6572206973206e6f7420636f6e7472616374206f776e65720000000081525060200191505060405180910390fd5b6000809054906101000a900460ff16151561084b576040517f08c379a00000000000000000000000000000000000000000000000000000000081526004018080602001828103825260258152602001807f436f6e74726163742069732063757272656e746c79206e6f74206f706572617481526020017f696f6e616c00000000000000000000000000000000000000000000000000000081525060400191505060405180910390fd5b600160008373ffffffffffffffffffffffffffffffffffffffff1673ffffffffffffffffffffffffffffffffffffffff16815260200190815260200160002060000160009054906101000a900460ff16151515610910576040517f08c379a000000000000000000000000000000000000000000000000000000000815260040180806020018281038252601b8152602001807f5573657220697320616c726561647920726567697374657265642e000000000081525060200191505060405180910390fd5b6040805190810160405280600115158152602001821515815250600160008473ffffffffffffffffffffffffffffffffffffffff1673ffffffffffffffffffffffffffffffffffffffff16815260200190815260200160002060008201518160000160006101000a81548160ff02191690831515021790555060208201518160000160016101000a81548160ff0219169083151502179055509050505050565b60008060009054906101000a900460ff16905090565b828054828255906000526020600020908101928215610a3f579160200282015b82811115610a3e5782518260006101000a81548173ffffffffffffffffffffffffffffffffffffffff021916908373ffffffffffffffffffffffffffffffffffffffff160217905550916020019190600101906109e6565b5b509050610a4c9190610a50565b5090565b610a9091905b80821115610a8c57600081816101000a81549073ffffffffffffffffffffffffffffffffffffffff021916905550600101610a56565b5090565b905600a165627a7a72305820e7182e968856908c4cfd715d45f59a7b22e0cd4ed69fe957d80e21ba2079b29d0029",
  "source": "pragma solidity ^0.4.25;\r\n\r\ncontract ExerciseC6A {\r\n    /********************************************************************************************/\r\n    /*                                       DATA VARIABLES                                     */\r\n    /********************************************************************************************/\r\n    bool private operational = true;\r\n\r\n    struct UserProfile {\r\n        bool isRegistered;\r\n        bool isAdmin;\r\n    }\r\n\r\n    address private contractOwner; // Account used to deploy contract\r\n    mapping(address => UserProfile) userProfiles; // Mapping for storing user profiles\r\n    uint256 constant M = 2;\r\n    address[] multiCalls = new address[](0);\r\n\r\n    /********************************************************************************************/\r\n    /*                                       EVENT DEFINITIONS                                  */\r\n    /********************************************************************************************/\r\n\r\n    // No events\r\n\r\n    /**\r\n     * @dev Constructor\r\n     *      The deploying account becomes contractOwner\r\n     */\r\n    constructor() public {\r\n        contractOwner = msg.sender;\r\n    }\r\n\r\n    /********************************************************************************************/\r\n    /*                                       FUNCTION MODIFIERS                                 */\r\n    /********************************************************************************************/\r\n\r\n    // Modifiers help avoid duplication of code. They are typically used to validate something\r\n    // before a function is allowed to be executed.\r\n\r\n    /**\r\n     * @dev Modifier that requires the \"ContractOwner\" account to be the function caller\r\n     */\r\n    modifier requireContractOwner() {\r\n        require(msg.sender == contractOwner, \"Caller is not contract owner\");\r\n        _;\r\n    }\r\n\r\n    /**\r\n     * @dev Modifier that requires the \"operational\" boolean variable to be \"true\"\r\n     *      This is used on all state changing functions to pause the contract in\r\n     *      the event there is an issue that needs to be fixed\r\n     */\r\n    modifier requireIsOperational() {\r\n        require(operational, \"Contract is currently not operational\");\r\n        _; // All modifiers require an \"_\" which indicates where the function body will be added\r\n    }\r\n\r\n    /********************************************************************************************/\r\n    /*                                       UTILITY FUNCTIONS                                  */\r\n    /********************************************************************************************/\r\n\r\n    /**\r\n     * @dev Check if a user is registered\r\n     *\r\n     * @return A bool that indicates if the user is registered\r\n     */\r\n\r\n    function isUserRegistered(address account) external view returns (bool) {\r\n        require(account != address(0), \"'account' must be a valid address.\");\r\n        return userProfiles[account].isRegistered;\r\n    }\r\n\r\n    /**\r\n     * @dev Get operating status of contract\r\n     *\r\n     * @return A bool that is the current operating status\r\n     */\r\n\r\n    function isOperational() public view returns (bool) {\r\n        return operational;\r\n    }\r\n\r\n    /********************************************************************************************/\r\n    /*                                     SMART CONTRACT FUNCTIONS                             */\r\n    /********************************************************************************************/\r\n\r\n    function registerUser(address account, bool isAdmin)\r\n        external\r\n        requireContractOwner\r\n        requireIsOperational\r\n    {\r\n        require(\r\n            !userProfiles[account].isRegistered,\r\n            \"User is already registered.\"\r\n        );\r\n\r\n        userProfiles[account] = UserProfile({\r\n            isRegistered: true,\r\n            isAdmin: isAdmin\r\n        });\r\n    }\r\n\r\n    /**\r\n     * @dev Sets contract operations on/off\r\n     *\r\n     * When operational mode is disabled, all write transactions except for this one will fail\r\n     */\r\n\r\n    function setOperatingStatus(bool mode) external requireContractOwner {\r\n        require(\r\n            mode != operational,\r\n            \"New mode must be different from existing mode\"\r\n        );\r\n        require(userProfiles[msg.sender].isAdmin, \"Caller is not an admin\");\r\n\r\n        bool isDuplicate = false;\r\n        for (uint256 c = 0; c < multiCalls.length; c++) {\r\n            if (multiCalls[c] == msg.sender) {\r\n                isDuplicate = true;\r\n                break;\r\n            }\r\n        }\r\n        require(!isDuplicate, \"Caller has already called this function.\");\r\n\r\n        multiCalls.push(msg.sender);\r\n        if (multiCalls.length >= M) {\r\n            operational = mode;\r\n            multiCalls = new address[](0);\r\n        }\r\n    }\r\n}\r\n",
  "sourcePath": "C:/Users/roque/Documents/Blockchain workspace/BCND-C6-Exercises/contracts/ExerciseC6A.sol",
  "compiler": {
    "name": "solc",
    "version": "0.4.26+commit.4563c3fc.Emscripten.clang"
  },
  "schemaVersion": "3.3.0",
  "updatedAt": "2021-01-07T08:58:14.291Z",
  "devdoc": {
    "methods": {
      "isOperational()": {
        "details": "Get operating status of contract\r ",
        "return": "A bool that is the current operating status\r"
      },
      "isUserRegistered(address)": {
        "details": "Check if a user is registered\r ",
        "return": "A bool that indicates if the user is registered\r"
      },
      "setOperatingStatus(bool)": {
        "details": "Sets contract operations on/off\r      * When operational mode is disabled, all write transactions except for this one will fail\r"
      }
    }
  },
  "userdoc": {
    "methods": {
      "registerUser(address,bool)": {
        "notice": "*****************************************************************************************"
      }
    }
  }
}