{
  "contractName": "ExerciseC6D",
  "abi": [
    {
      "constant": true,
      "inputs": [],
      "name": "REGISTRATION_FEE",
      "outputs": [
        {
          "name": "",
          "type": "uint256"
        }
      ],
      "payable": false,
      "stateMutability": "view",
      "type": "function"
    },
    {
      "inputs": [],
      "payable": false,
      "stateMutability": "nonpayable",
      "type": "constructor"
    },
    {
      "anonymous": false,
      "inputs": [
        {
          "indexed": false,
          "name": "flight",
          "type": "string"
        },
        {
          "indexed": false,
          "name": "timestamp",
          "type": "uint256"
        },
        {
          "indexed": false,
          "name": "status",
          "type": "uint8"
        },
        {
          "indexed": false,
          "name": "verified",
          "type": "bool"
        }
      ],
      "name": "FlightStatusInfo",
      "type": "event"
    },
    {
      "anonymous": false,
      "inputs": [
        {
          "indexed": false,
          "name": "index",
          "type": "uint8"
        },
        {
          "indexed": false,
          "name": "flight",
          "type": "string"
        },
        {
          "indexed": false,
          "name": "timestamp",
          "type": "uint256"
        }
      ],
      "name": "OracleRequest",
      "type": "event"
    },
    {
      "constant": false,
      "inputs": [],
      "name": "registerOracle",
      "outputs": [],
      "payable": true,
      "stateMutability": "payable",
      "type": "function"
    },
    {
      "constant": true,
      "inputs": [
        {
          "name": "account",
          "type": "address"
        }
      ],
      "name": "getOracle",
      "outputs": [
        {
          "name": "",
          "type": "uint8[3]"
        }
      ],
      "payable": false,
      "stateMutability": "view",
      "type": "function"
    },
    {
      "constant": false,
      "inputs": [
        {
          "name": "flight",
          "type": "string"
        },
        {
          "name": "timestamp",
          "type": "uint256"
        }
      ],
      "name": "fetchFlightStatus",
      "outputs": [],
      "payable": false,
      "stateMutability": "nonpayable",
      "type": "function"
    },
    {
      "constant": false,
      "inputs": [
        {
          "name": "index",
          "type": "uint8"
        },
        {
          "name": "flight",
          "type": "string"
        },
        {
          "name": "timestamp",
          "type": "uint256"
        },
        {
          "name": "statusId",
          "type": "uint8"
        }
      ],
      "name": "submitOracleResponse",
      "outputs": [],
      "payable": false,
      "stateMutability": "nonpayable",
      "type": "function"
    },
    {
      "constant": true,
      "inputs": [
        {
          "name": "flight",
          "type": "string"
        },
        {
          "name": "timestamp",
          "type": "uint256"
        }
      ],
      "name": "viewFlightStatus",
      "outputs": [
        {
          "name": "",
          "type": "uint8"
        }
      ],
      "payable": false,
      "stateMutability": "view",
      "type": "function"
    }
  ],
  "bytecode": "0x608060405260008060146101000a81548160ff021916908360ff16021790555034801561002b57600080fd5b50336000806101000a81548173ffffffffffffffffffffffffffffffffffffffff021916908373ffffffffffffffffffffffffffffffffffffffff1602179055506112918061007b6000396000f300608060405260043610610078576000357c0100000000000000000000000000000000000000000000000000000000900463ffffffff16806310d3d22e1461007d578063339d2590146100fc57806364b4f751146101065780637b91ce38146101315780638ec0268b14610176578063dc7044e1146101d5575b600080fd5b34801561008957600080fd5b506100be600480360381019080803573ffffffffffffffffffffffffffffffffffffffff169060200190929190505050610234565b6040518082600360200280838360005b838110156100e95780820151818401526020810190506100ce565b5050505090500191505060405180910390f35b6101046103a8565b005b34801561011257600080fd5b5061011b6104b3565b6040518082815260200191505060405180910390f35b34801561013d57600080fd5b50610174600480360381019080803590602001908201803590602001919091929391929390803590602001909291905050506104bf565b005b34801561018257600080fd5b506101d3600480360381019080803560ff16906020019092919080359060200190820180359060200191909192939192939080359060200190929190803560ff1690602001909291905050506106b1565b005b3480156101e157600080fd5b5061021860048036038101908080359060200190820180359060200191909192939192939080359060200190929190505050610d05565b604051808260ff1660ff16815260200191505060405180910390f35b61023c611178565b6000809054906101000a900473ffffffffffffffffffffffffffffffffffffffff1673ffffffffffffffffffffffffffffffffffffffff163373ffffffffffffffffffffffffffffffffffffffff16141515610300576040517f08c379a000000000000000000000000000000000000000000000000000000000815260040180806020018281038252601c8152602001807f43616c6c6572206973206e6f7420636f6e7472616374206f776e65720000000081525060200191505060405180910390fd5b600160008373ffffffffffffffffffffffffffffffffffffffff1673ffffffffffffffffffffffffffffffffffffffff16815260200190815260200160002060038060200260405190810160405280929190826003801561039c576020028201916000905b82829054906101000a900460ff1660ff16815260200190600101906020826000010492830192600103820291508084116103655790505b50505050509050919050565b6103b0611178565b670de0b6b3a76400003410151515610456576040517f08c379a00000000000000000000000000000000000000000000000000000000081526004018080602001828103825260218152602001807f4e65656420312065746865722066656520666f7220726567697374726174696f81526020017f6e0000000000000000000000000000000000000000000000000000000000000081525060400191505060405180910390fd5b61045f33610e71565b905080600160003373ffffffffffffffffffffffffffffffffffffffff1673ffffffffffffffffffffffffffffffffffffffff1681526020019081526020016000209060036104af92919061119b565b5050565b670de0b6b3a764000081565b6000806104cb33611017565b915081858585604051602001808560ff1660ff167f010000000000000000000000000000000000000000000000000000000000000002815260010184848082843782019150508281526020019450505050506040516020818303038152906040526040518082805190602001908083835b602083101515610561578051825260208201915060208101905060208303925061053c565b6001836020036101000a0380198251168184511680821785525050505050509050019150506040518091039020905060408051908101604052803373ffffffffffffffffffffffffffffffffffffffff1681526020016001151581525060026000836000191660001916815260200190815260200160002060008201518160000160006101000a81548173ffffffffffffffffffffffffffffffffffffffff021916908373ffffffffffffffffffffffffffffffffffffffff16021790555060208201518160000160146101000a81548160ff0219169083151502179055509050507f33cc1dc817476a865477242f5d168e635bcd483a67e12e1ebde698e1a9ec023a82868686604051808560ff1660ff16815260200180602001838152602001828103825285858281815260200192508082843782019150509550505050505060405180910390a15050505050565b6000808660ff16600160003373ffffffffffffffffffffffffffffffffffffffff1673ffffffffffffffffffffffffffffffffffffffff168152602001908152602001600020600060038110151561070557fe5b602091828204019190069054906101000a900460ff1660ff16148061079157508660ff16600160003373ffffffffffffffffffffffffffffffffffffffff1673ffffffffffffffffffffffffffffffffffffffff168152602001908152602001600020600160038110151561077657fe5b602091828204019190069054906101000a900460ff1660ff16145b8061080357508660ff16600160003373ffffffffffffffffffffffffffffffffffffffff1673ffffffffffffffffffffffffffffffffffffffff16815260200190815260200160002060026003811015156107e857fe5b602091828204019190069054906101000a900460ff1660ff16145b151561089d576040517f08c379a00000000000000000000000000000000000000000000000000000000081526004018080602001828103825260238152602001807f496e64657820646f6573206e6f74206d61746368206f7261636c65207265717581526020017f657374000000000000000000000000000000000000000000000000000000000081525060400191505060405180910390fd5b86868686604051602001808560ff1660ff167f010000000000000000000000000000000000000000000000000000000000000002815260010184848082843782019150508281526020019450505050506040516020818303038152906040526040518082805190602001908083835b602083101515610931578051825260208201915060208101905060208303925061090c565b6001836020036101000a0380198251168184511680821785525050505050509050019150506040518091039020915060026000836000191660001916815260200190815260200160002060000160149054906101000a900460ff161515610a26576040517f08c379a000000000000000000000000000000000000000000000000000000000815260040180806020018281038252602f8152602001807f666c69676874206f722074696d657374616d7020646f206e6f74206d6174636881526020017f206f7261636c652072657175657374000000000000000000000000000000000081525060400191505060405180910390fd5b60026000836000191660001916815260200190815260200160002060010160008460ff1660ff1681526020019081526020016000203390806001815401808255809150509060018203906000526020600020016000909192909190916101000a81548173ffffffffffffffffffffffffffffffffffffffff021916908373ffffffffffffffffffffffffffffffffffffffff16021790555050600360026000846000191660001916815260200190815260200160002060010160008560ff1660ff16815260200190815260200160002080549050101515610c87577f2f1c265a6c6abb151887cacc1fd693a4c8dc417f3f955372b3632cdbc5ed7a4186868686600160405180806020018581526020018460ff1660ff1681526020018315151515815260200182810382528787828181526020019250808284378201915050965050505050505060405180910390a185858560405160200180848480828437820191505082815260200193505050506040516020818303038152906040526040518082805190602001908083835b602083101515610bd95780518252602082019150602081019050602083039250610bb4565b6001836020036101000a0380198251168184511680821785525050505050509050019150506040518091039020905060408051908101604052806001151581526020018460ff1681525060036000836000191660001916815260200190815260200160002060008201518160000160006101000a81548160ff02191690831515021790555060208201518160000160016101000a81548160ff021916908360ff160217905550905050610cfc565b7f2f1c265a6c6abb151887cacc1fd693a4c8dc417f3f955372b3632cdbc5ed7a4186868686600060405180806020018581526020018460ff1660ff1681526020018315151515815260200182810382528787828181526020019250808284378201915050965050505050505060405180910390a15b50505050505050565b60008060036000826000191660001916815260200190815260200160002060000160009054906101000a900460ff161515610da8576040517f08c379a000000000000000000000000000000000000000000000000000000000815260040180806020018281038252601b8152602001807f466c6967687420737461747573206e6f7420617661696c61626c65000000000081525060200191505060405180910390fd5b84848460405160200180848480828437820191505082815260200193505050506040516020818303038152906040526040518082805190602001908083835b602083101515610e0c5780518252602082019150602081019050602083039250610de7565b6001836020036101000a0380198251168184511680821785525050505050509050019150506040518091039020905060036000826000191660001916815260200190815260200160002060000160019054906101000a900460ff169150509392505050565b610e79611178565b610e81611178565b610e8a83611017565b816000600381101515610e9957fe5b602002019060ff16908160ff1681525050806000600381101515610eb957fe5b6020020151816001600381101515610ecd57fe5b602002019060ff16908160ff16815250505b806000600381101515610eee57fe5b602002015160ff16816001600381101515610f0557fe5b602002015160ff161415610f4157610f1c83611017565b816001600381101515610f2b57fe5b602002019060ff16908160ff1681525050610edf565b806001600381101515610f5057fe5b6020020151816002600381101515610f6457fe5b602002019060ff16908160ff16815250505b806000600381101515610f8557fe5b602002015160ff16816002600381101515610f9c57fe5b602002015160ff161480610fdb5750806001600381101515610fba57fe5b602002015160ff16816002600381101515610fd157fe5b602002015160ff16145b1561100e57610fe983611017565b816002600381101515610ff857fe5b602002019060ff16908160ff1681525050610f76565b80915050919050565b6000806000600a91508160ff166000601481819054906101000a900460ff168092919060010191906101000a81548160ff021916908360ff16021790555060ff16430340856040516020018083600019166000191681526020018273ffffffffffffffffffffffffffffffffffffffff1673ffffffffffffffffffffffffffffffffffffffff166c01000000000000000000000000028152601401925050506040516020818303038152906040526040518082805190602001908083835b6020831015156110fa57805182526020820191506020810190506020830392506110d5565b6001836020036101000a03801982511681845116808217855250505050505090500191505060405180910390206001900481151561113457fe5b06905060fa600060149054906101000a900460ff1660ff16111561116e5760008060146101000a81548160ff021916908360ff1602179055505b8092505050919050565b606060405190810160405280600390602082028038833980820191505090505090565b826003601f016020900481019282156112245791602002820160005b838211156111f557835183826101000a81548160ff021916908360ff16021790555092602001926001016020816000010492830192600103026111b7565b80156112225782816101000a81549060ff02191690556001016020816000010492830192600103026111f5565b505b5090506112319190611235565b5090565b61126291905b8082111561125e57600081816101000a81549060ff02191690555060010161123b565b5090565b905600a165627a7a723058201ae746c763e96b11a2d3bccf0fa414912e00e5ff32f691248d3e601f66a3e1940029",
  "source": "pragma solidity ^0.4.25;\r\n\r\n// It's important to avoid vulnerabilities due to numeric overflow bugs\r\n// OpenZeppelin's SafeMath library, when used correctly, protects agains such bugs\r\n// More info: https://www.nccgroup.trust/us/about-us/newsroom-and-events/blog/2018/november/smart-contract-insecurity-bad-arithmetic/\r\n\r\nimport \"../../node_modules/openzeppelin-solidity/contracts/math/SafeMath.sol\";\r\n\r\ncontract ExerciseC6D {\r\n    using SafeMath for uint256; // Allow SafeMath functions to be called for all uint256 types (similar to \"prototype\" in Javascript)\r\n\r\n    address private contractOwner; // Account used to deploy contract\r\n\r\n    // Incremented to add pseudo-randomness at various points\r\n    uint8 private nonce = 0;\r\n\r\n    // Fee to be paid when registering oracle\r\n    uint256 public constant REGISTRATION_FEE = 1 ether;\r\n\r\n    // Number of oracles that must respond for valid status\r\n    uint256 private constant MIN_RESPONSES = 3;\r\n\r\n    // Status codes returned by oracles\r\n    uint8 private constant ON_TIME = 10;\r\n    uint8 private constant NOT_ON_TIME = 99;\r\n\r\n    // Track all registered oracles\r\n    mapping(address => uint8[3]) private oracles;\r\n\r\n    // Model for responses from oracles\r\n    struct ResponseInfo {\r\n        address requester; // Account that requested status\r\n        bool isOpen; // If open, oracle responses are accepted\r\n        mapping(uint8 => address[]) responses; // Mapping key is the status code reported\r\n        // This lets us group responses and identify\r\n        // the response that majority of the oracles\r\n        // submit\r\n    }\r\n\r\n    // Track all oracle responses\r\n    // Key = hash(index, flight, timestamp)\r\n    mapping(bytes32 => ResponseInfo) private oracleResponses;\r\n\r\n    // Event fired each time an oracle submits a response\r\n    event FlightStatusInfo(\r\n        string flight,\r\n        uint256 timestamp,\r\n        uint8 status,\r\n        bool verified\r\n    );\r\n\r\n    // Flight data persisted forever\r\n    struct FlightStatus {\r\n        bool hasStatus;\r\n        uint8 status;\r\n    }\r\n    mapping(bytes32 => FlightStatus) flights;\r\n\r\n    constructor() public {\r\n        contractOwner = msg.sender;\r\n    }\r\n\r\n    /********************************************************************************************/\r\n    /*                                       FUNCTION MODIFIERS                                 */\r\n    /********************************************************************************************/\r\n\r\n    modifier requireContractOwner() {\r\n        require(msg.sender == contractOwner, \"Caller is not contract owner\");\r\n        _;\r\n    }\r\n\r\n    /********************************************************************************************/\r\n    /*                                     SMART CONTRACT FUNCTIONS                             */\r\n    /********************************************************************************************/\r\n\r\n    /*********************************** BEGIN: Oracle Registration ***********************************/\r\n\r\n    // STAGE ONE: ORACLES REGISTER WITH THE SMART CONTRACT\r\n\r\n    // Register an oracle with the contract\r\n    function registerOracle() external payable {\r\n        // CODE EXERCISE 1: Require registration fee\r\n        /* Enter code here */\r\n        require(\r\n            msg.value >= REGISTRATION_FEE,\r\n            \"Need 1 ether fee for registration\"\r\n        );\r\n        // CODE EXERCISE 1: Generate three random indexes (range 0-9) using generateIndexes for the calling oracle\r\n        /* Enter code here */\r\n        uint8[3] memory indexes = generateIndexes(msg.sender);\r\n        // CODE EXERCISE 1: Assign the indexes to the oracle and save to the contract state\r\n        /* Enter code here */\r\n        oracles[msg.sender] = indexes;\r\n    }\r\n\r\n    function getOracle(address account)\r\n        external\r\n        view\r\n        requireContractOwner\r\n        returns (uint8[3])\r\n    {\r\n        return oracles[account];\r\n    }\r\n\r\n    /************************************ END: Oracle Registration ************************************/\r\n\r\n    /************************************ BEGIN: Oracle Data Request ************************************/\r\n\r\n    // STAGE TWO: ORACLES ARE RANDOMLY CHOSEN TO FETCH INFORMATION\r\n\r\n    // Event fired when flight status request is submitted\r\n    // Oracles track this and if they have a matching index\r\n    // they fetch data and submit a response\r\n    event OracleRequest(uint8 index, string flight, uint256 timestamp);\r\n\r\n    // Generate a request\r\n    function fetchFlightStatus(string flight, uint256 timestamp) external {\r\n        // Generate a number between 0 - 9 to determine which oracles may respond\r\n\r\n        // CODE EXERCISE 2: Replace the hard-coded value of index with a random index based on the calling account\r\n        uint8 index = getRandomIndex(msg.sender);\r\n\r\n        // Generate a unique key for storing the request\r\n        bytes32 key = keccak256(abi.encodePacked(index, flight, timestamp));\r\n        oracleResponses[key] = ResponseInfo({\r\n            requester: msg.sender,\r\n            isOpen: true\r\n        });\r\n\r\n        // CODE EXERCISE 2: Notify oracles that match the index value that they need to fetch flight status\r\n        /* Enter code here */\r\n\r\n        emit OracleRequest(index, flight, timestamp);\r\n    }\r\n\r\n    /************************************ END: Oracle Data Request ************************************/\r\n\r\n    /*********************************** BEGIN: Oracle Callback ***********************************/\r\n\r\n    // STAGE THREE: ORACLES SUBMIT INFORMATION\r\n\r\n    // Called by oracle when a response is available to an outstanding request\r\n    // For the response to be accepted, there must be a pending request that is open\r\n    // and matches one of the three Indexes randomly assigned to the oracle at the\r\n    // time of registration (i.e. uninvited oracles are not welcome)\r\n    function submitOracleResponse(\r\n        uint8 index,\r\n        string flight,\r\n        uint256 timestamp,\r\n        uint8 statusId\r\n    ) external {\r\n        require(\r\n            (oracles[msg.sender][0] == index) ||\r\n                (oracles[msg.sender][1] == index) ||\r\n                (oracles[msg.sender][2] == index),\r\n            \"Index does not match oracle request\"\r\n        );\r\n\r\n        // CODE EXERCISE 3: Require that the response is being submitted for a request that is still open\r\n        bytes32 key = keccak256(abi.encodePacked(index, flight, timestamp));\r\n        require(\r\n            oracleResponses[key].isOpen,\r\n            \"flight or timestamp do not match oracle request\"\r\n        ); // La clave es invalida o puede que ya se haya completado la respuesta.\r\n\r\n        oracleResponses[key].responses[statusId].push(msg.sender);\r\n\r\n        // Information isn't considered verified until at least MIN_RESPONSES\r\n        // oracles respond with the *** same *** information\r\n        if (oracleResponses[key].responses[statusId].length >= MIN_RESPONSES) {\r\n            // CODE EXERCISE 3: Prevent any more responses since MIN_RESPONSE threshold has been reached\r\n            /* Enter code here */\r\n\r\n            // CODE EXERCISE 3: Announce to the world that verified flight status information is available\r\n            /* Enter code here */\r\n            emit FlightStatusInfo(flight, timestamp, statusId, true);\r\n\r\n            // Save the flight information for posterity\r\n            bytes32 flightKey = keccak256(abi.encodePacked(flight, timestamp));\r\n            flights[flightKey] = FlightStatus(true, statusId);\r\n        } else {\r\n            // Oracle submitting response but MIN_RESPONSES threshold not yet reached\r\n            // CODE EXERCISE 3: Announce to the world that verified flight status information is available\r\n            /* Enter code here */\r\n            emit FlightStatusInfo(flight, timestamp, statusId, false);\r\n        }\r\n    }\r\n\r\n    /************************************ END: Oracle Callback ************************************/\r\n\r\n    /************************************ BEGIN: Utility Functions ************************************/\r\n\r\n    // Query the status of any flight\r\n    function viewFlightStatus(string flight, uint256 timestamp)\r\n        external\r\n        view\r\n        returns (uint8)\r\n    {\r\n        require(flights[flightKey].hasStatus, \"Flight status not available\");\r\n\r\n        bytes32 flightKey = keccak256(abi.encodePacked(flight, timestamp));\r\n        return flights[flightKey].status;\r\n    }\r\n\r\n    // Returns array of three non-duplicating integers from 0-9\r\n    function generateIndexes(address account) internal returns (uint8[3]) {\r\n        uint8[3] memory indexes;\r\n        indexes[0] = getRandomIndex(account);\r\n\r\n        indexes[1] = indexes[0];\r\n        while (indexes[1] == indexes[0]) {\r\n            indexes[1] = getRandomIndex(account);\r\n        }\r\n\r\n        indexes[2] = indexes[1];\r\n        while ((indexes[2] == indexes[0]) || (indexes[2] == indexes[1])) {\r\n            indexes[2] = getRandomIndex(account);\r\n        }\r\n\r\n        return indexes;\r\n    }\r\n\r\n    // Returns array of three non-duplicating integers from 0-9\r\n    function getRandomIndex(address account) internal returns (uint8) {\r\n        uint8 maxValue = 10;\r\n\r\n        // Pseudo random number...the incrementing nonce adds variation\r\n        uint8 random =\r\n            uint8(\r\n                uint256(\r\n                    keccak256(\r\n                        abi.encodePacked(\r\n                            blockhash(block.number - nonce++),\r\n                            account\r\n                        )\r\n                    )\r\n                ) % maxValue\r\n            );\r\n\r\n        if (nonce > 250) {\r\n            nonce = 0; // Can only fetch blockhashes for last 256 blocks so we adapt\r\n        }\r\n\r\n        return random;\r\n    }\r\n\r\n    /************************************ END: Utility Functions ************************************/\r\n}\r\n",
  "sourcePath": "C:/Users/roque/Documents/Blockchain workspace/BCND-C6-Exercise-D/BCND-C6-Exercises/contracts/ExerciseC6D/ExerciseC6D.sol",
  "compiler": {
    "name": "solc",
    "version": "0.4.26+commit.4563c3fc.Emscripten.clang"
  },
  "schemaVersion": "3.3.0",
  "updatedAt": "2021-01-11T10:40:31.551Z",
  "devdoc": {
    "methods": {}
  },
  "userdoc": {
    "methods": {
      "registerOracle()": {
        "notice": "********************************* BEGIN: Oracle Registration **********************************"
      },
      "submitOracleResponse(uint8,string,uint256,uint8)": {
        "notice": "********************************* BEGIN: Oracle Callback **********************************"
      },
      "viewFlightStatus(string,uint256)": {
        "notice": "********************************** BEGIN: Utility Functions ***********************************"
      }
    }
  }
}